:100000000C944A010C947B010C947B010C947B01B1
:100010000C947B010C947B010C947B010C947B0170
:100020000C947B010C947B010C947B010C947B0160
:100030000C947B010C947B010C947B010C947B0150
:100040000C947B010C947B010C947B010C947B0140
:100050000C947B010C947B010C947B010C94BF04E9
:100060000C947B010C9489040C945F040C947B0128
:100070000C947B010C947B010C947B010C947B0110
:100080000C947B010C947B010C947B010C947B0100
:100090000C947B010C947B010C947B010C947B01F0
:1000A0000C947B010C947B010C947B010C947B01E0
:1000B0000C947B010C947B010C947B010C947B01D0
:1000C0000C947B010C947B010C947B010C947B01C0
:1000D0000C947B010C947B010C947B010C947B01B0
:1000E0000C947B010C9436030C949C010C94170324
:1000F0000C941F030C9456030C9423030C940003DC
:100100000C9466080C94FA010C9407080C944403B0
:100110000C94D4070C944C030C94E3070C94D80172
:100120000C9448030C9425080C942C030C94C901DE
:100130000C9434080C9411080C941B030C94EC01DF
:100140000C943E080C9452030C947F020C944808C3
:100150000C9430030C943A030C9452080C94F70757
:100160000C94D9070C9405030C9481080C941B087B
:100170000C94ED070C945C080C94FF070C94AA07F0
:100180000C943E030C9426030C94320200000A0BDC
:1001900002090C0D0E080703040100000000000016
:1001A000000000000000000000000000000000004F
:1001B000000000000000000012111000000000000C
:1001C000000000000000000000000000000000002F
:1001D000000000002200250028002B002E00310026
:1001E000340002010000050108010B01000021009C
:1001F000240027002A002D003000330001010000F8
:10020000040107010A010505050507050808080896
:10021000020202020A0A080804040404010101019E
:100220000101010103030303030303030407070799
:100230000C0C0C0C0C0C0C0C02020202060606063E
:10024000060606060B0B0B0B0B0B0B0B010210200B
:1002500020080810204010204080020102010804FC
:100260000201010204081020408080402010080490
:1002700002018004020180402010080402010804E9
:10028000020101020408102040800102040810202D
:100290004080810811241FBECFEFD1E2DEBFCDBF69
:1002A00000E00CBF12E0A0E0B2E0E6E7F2E100E01F
:1002B0000BBF02C007900D92A636B107D9F723E015
:1002C000A6E6B2E001C01D92AB32B207E1F711E041
:1002D000CAE4D1E000E006C021970109802FFE01A9
:1002E0000E941D09C934D10780E00807A9F70E94C0
:1002F00009050C9439090C94000090E0FC01E45BC2
:10030000FD4F24918A5F9D4FFC018491882399F0D1
:1003100090E0880F991FFC01E451FE4FA591B49124
:10032000FC01EE52FE4F859194918FB7F894EC91B9
:10033000E22BEC938FBF0895AF92BF92CF92DF92E2
:10034000EF92FF920F931F93CF93DF936C017B018A
:100350008B01040F151FEB015E01AE18BF08C0171B
:10036000D10759F06991D601ED91FC910190F0818E
:10037000E02DC6011995892B79F7C501DF91CF9141
:100380001F910F91FF90EF90DF90CF90BF90AF90B3
:100390000895FC01538D448D252F30E0842F90E08B
:1003A000821B930B541710F0CF9608950197089570
:1003B000FC01918D828D981761F0A28DAE0FBF2F39
:1003C000B11D5D968C91928D9F5F9F73928F90E08F
:1003D00008958FEF9FEF0895FC01918D828D9817FE
:1003E00031F0828DE80FF11D858D90E008958FEF3B
:1003F0009FEF0895FC01918D228D892F90E0805C04
:100400009F4F821B91098F73992708958EE892E080
:100410000E94FA0121E0892B09F420E0822F08953F
:10042000FC01A48DA80FB92FB11DA35ABF4F2C9169
:10043000848D90E001968F739927848FA689B78960
:100440002C93A089B1898C91837080648C93938D57
:10045000848D981306C00288F389E02D80818F7DFA
:1004600080830895EF92FF920F931F93CF93DF93B2
:10047000EC0181E0888F9B8D8C8D98131AC0E889E0
:10048000F989808185FF15C09FB7F894EE89FF89AF
:100490006083E889F98980818370806480839FBF4D
:1004A00081E090E0DF91CF911F910F91FF90EF904D
:1004B0000895F62E0B8D10E00F5F1F4F0F7311275D
:1004C000E02E8C8D8E110CC00FB607FCFACFE88998
:1004D000F989808185FFF5CFCE010E941002F1CF0E
:1004E000EB8DEC0FFD2FF11DE35AFF4FF0829FB70C
:1004F000F8940B8FEA89FB8980818062CFCFCF93FC
:10050000DF93EC01888D8823B9F0AA89BB89E8893B
:10051000F9898C9185FD03C0808186FD0DC00FB6E1
:1005200007FCF7CF8C9185FFF2CF808185FFEDCF5F
:10053000CE010E941002E9CFDF91CF91089580E0B3
:1005400090E0892B29F00E94060281110E94000090
:1005500080E090E0892B49F080E090E0892B29F041
:100560000E94000081110E94000080E090E0892B31
:1005700049F080E090E0892B29F00E940000811171
:100580000E94000080E090E0892B49F080E090E03C
:10059000892B29F00E94000081110C94000008951D
:1005A000282F30E0F901E457FE4F9491F901E45B04
:1005B000FD4F44912A5F3D4FF9012491222309F414
:1005C00035C0992311F191509231F8F4E92FF0E000
:1005D0008827E251FD4F8F4F0C941D091F03230301
:1005E000000317031B03050326032C033003360304
:1005F0003A033E034403480305034C0352035603E6
:10060000809180008F7780938000E22FF0E0EE0FE2
:10061000FF1FEE52FE4FA591B4918FB7F894EC9165
:10062000611148C040954E234C938FBF089580912F
:1006300080008F7DE8CF80918000877FE4CF84B5F4
:100640008F7784BDE2CF84B58F7DFBCF8091B000E2
:100650008F778093B000D9CF8091B0008F7DF9CF94
:10066000809190008F7780939000CFCF8091900001
:100670008F7DF9CF80919000877FF5CF8091A0008A
:100680008F778093A000C1CF8091A0008F7DF9CF9C
:100690008091A000877FF5CF809120018F77809394
:1006A0002001B3CF809120018F7DF9CF809120016F
:1006B000877FF5CF4E2BB8CF3FB7F8948091670274
:1006C00090916802A0916902B0916A0226B5A89B38
:1006D00005C02F3F19F00196A11DB11D3FBFBA2FD4
:1006E000A92F982F8827BC01CD01620F711D811D94
:1006F000911D42E0660F771F881F991F4A95D1F719
:1007000008958F929F92AF92BF92CF92DF92EF9215
:10071000FF924B015C010E945C036B017C010E9413
:100720005C036C197D098E099F09683E7340810541
:100730009105A8F321E0821A9108A108B10888EE7A
:10074000C80E83E0D81EE11CF11C81149104A104A1
:10075000B10429F7FF90EF90DF90CF90BF90AF905A
:100760009F908F9008959AEC980F863308F0892F08
:10077000682F68708770982F90648AE050E040E09E
:1007800020917B00277F262B20937B0090937C0079
:1007900020917A00206420937A0020917A0026FD2F
:1007A000FCCF30917800209179002327322723272E
:1007B000420F531F815021F7CA016AE070E00E9486
:1007C0000909CB010895FC0101900020E9F7319758
:1007D000AF01481B590BBC018EE892E00C949C01C0
:1007E0008F929F92AF92BF920F931F93CF93DF93FD
:1007F000CDB7DEB7A1970FB6F894DEBF0FBECDBF61
:1008000019A2423008F44AE08E010F5D1F4F842E7A
:10081000912CB12CA12CA50194010E94D808E62F9F
:10082000B901CA01EA30F4F4E05DD801EE938D011C
:10083000232B242B252B79F790E080E0109719F0DB
:10084000CD010E94E303A1960FB6F894DEBF0FBE60
:10085000CDBFDF91CF911F910F91BF90AF909F902F
:100860008F900895E95CE1CFCF92DF92EF92FF92F3
:10087000CF93DF936B017C016DE28EE892E00E94E2
:100880003202EC0166277727CB016C197D098E09AE
:100890009F094AE00E94F0038C0F9D1FDF91CF91CA
:1008A000FF90EF90DF90CF900895BC01990F880BD7
:1008B000990B97FD0C9434044AE00C94F0031F92BA
:1008C0000F920FB60F9211240BB60F922F933F93F6
:1008D0004F935F936F937F938F939F93AF93BF9348
:1008E000EF93FF938EE892E00E941002FF91EF9148
:1008F000BF91AF919F918F917F916F915F914F9138
:100900003F912F910F900BBE0F900FBE0F901F9035
:1009100018951F920F920FB60F9211240BB60F92DB
:100920002F938F939F93EF93FF93E0919E02F0910B
:100930009F028081E091A402F091A50282FD1DC07A
:1009400090818091A7028F5F8F732091A8028217F8
:1009500041F0E091A702F0E0E257FD4F958F8093C0
:10096000A702FF91EF919F918F912F910F900BBE56
:100970000F900FBE0F901F9018958081F2CF1F929D
:100980000F920FB60F9211242F933F938F939F9343
:10099000AF93BF9380916B0290916C02A0916D0216
:1009A000B0916E023091660223E0230F2D3758F587
:1009B0000196A11DB11D2093660280936B02909356
:1009C0006C02A0936D02B0936E02809167029091C9
:1009D0006802A0916902B0916A020196A11DB11D41
:1009E0008093670290936802A0936902B0936A02B1
:1009F000BF91AF919F918F913F912F910F900FBE1B
:100A00000F901F90189526E8230F0296A11DB11D87
:100A1000D2CF789484B5826084BD84B5816084BD72
:100A200085B5826085BD85B5816085BD80916E008C
:100A3000816080936E0010928100809181008260BD
:100A400080938100809181008160809381008091FA
:100A500080008160809380008091B10084608093E9
:100A6000B1008091B00081608093B00080919100CE
:100A700082608093910080919100816080939100C9
:100A8000809190008160809390008091A1008260AD
:100A90008093A1008091A10081608093A10080914A
:100AA000A00081608093A0008091210182608093EA
:100AB0002101809121018160809321018091200199
:100AC00081608093200180917A00846080937A0015
:100AD00080917A00826080937A0080917A008160B0
:100AE00080937A0080917A00806880937A001092D7
:100AF000C10068EE73E080E090E00E94810386E12F
:100B00000E947D0188E10E947D018AE10E947D01B1
:100B10008EE10E947D018CE10E947D0161E086E111
:100B20000E94D00280E20E947D0182E20E947D014B
:100B300084E20E947D0186E20E947D0188E20E949B
:100B40007D0161E080E20E94D0028AE20E947D0184
:100B50008CE20E947D018EE20E947D0180E30E9472
:100B60007D0182E30E947D0161E08AE20E94D00261
:100B7000E0919E02F0919F0282E08083E0919A02D0
:100B8000F0919B021082E0919C02F0919D0280E125
:100B900080831092A602E091A202F091A30286E067
:100BA0008083E091A002F091A10280818061808326
:100BB000E091A002F091A102808188608083E091A1
:100BC000A002F091A102808180688083E091A00260
:100BD000F091A10280818F7D808384E690E0A0E087
:100BE000B0E08093920290939302A0939402B0930A
:100BF00095022FB7F89480916B0290916C02A091AE
:100C00006D02B0916E022FBF40918C0250918D0207
:100C1000052E000C660B770B841B950BA60BB70BF0
:100C200084369105A105B10508F44BC086E30E9406
:100C3000B3035C0187E30E94B3036C0188E30E9465
:100C4000B3037C0189E30E94B3038C018AE30E9411
:100C5000B303EC01C5010E94550480E692E00E94B6
:100C6000E303C6010E94550480E692E00E94E3037C
:100C7000C7010E94550480E692E00E94E303C80188
:100C80000E94550480E692E00E94E303BE01DD0F5E
:100C9000880B990B97FFF2C00E94340482E692E021
:100CA0000E94E3032FB7F89480916B0290916C023D
:100CB000A0916D02B0916E022FBF90938D02809330
:100CC0008C028EE892E00E94FA01892B09F498C008
:100CD00008E712E0D0E0C0E02FB7F89480916B02F3
:100CE00090916C02A0916D02B0916E022FBF809323
:100CF000960290939702A0939802B09399028EE87F
:100D000092E00E94D80197FFF3C12FB7F894809129
:100D10006B0290916C02A0916D02B0916E022FBF98
:100D200040919602509197026091980270919902B9
:100D3000841B950BA60BB70B409192025091930226
:100D4000609194027091950284179507A607B707E2
:100D5000B0F2C73009F054C080917802823D09F0AA
:100D60004CC080917E02873809F047C049E7C42E05
:100D700042E0D42E52E2E52E52E0F52E0FE612E0CC
:100D8000D0E0C0E0D6016D916D01D701ED91FD91EC
:100D90007D016E171F0611F00CF074C0CE018E5E3F
:100DA0009D4FDC018D909C90092C000CAA08BB087B
:100DB000CE01865E9D4FDC012D913C91032E000CEF
:100DC000440B550B281939094A095B09A62FB0E0D5
:100DD0000E94CD089F01FF0F440B550B0E94AE08E7
:100DE000820E931EA41EB51EF801918280820E5FB2
:100DF0001F4F2296C830D10529F6B1E0B093770293
:100E000080917702882309F4CCC08CE5682E82E0BB
:100E1000782E96E3892E92E0992E20E3A22E22E0EE
:100E2000B22E3AE2C32E32E0D32EF12CE12CF301A4
:100E300081913F01882309F4A3C0F701EC5AFD4FCB
:100E400080810E94B303F701E159FD4F2081318178
:100E5000281B390BC90137FF04C088279927821B3B
:100E6000930BF701EC5BFD4F4081518122242394C9
:100E700037FD12C0452B91F4212C10C04AE00E948E
:100E8000F0030CCFFE01EC5AFD4F80810E94B303AA
:100E9000D8018D939C93ABCF452B71F7D4013C9037
:100EA000F5014080D6015C90F701E45CFD4F2081A4
:100EB0003181281739070CF00EC1F701E45BFD4FB3
:100EC00020813181829F8001839F100D929F100DA0
:100ED00011240F3F110519F014F00FEF10E061E03D
:100EE000832D0E94D00261E0842D0E94D002E8018F
:100EF000DD27852D0E947D01209729F460E0852D56
:100F00000E94D0022BC0CF3FD10511F461E0F7CF92
:100F1000E52DF0E0E457FE4FE491E150E23108F0B6
:100F2000D5C0F0E08827E856F84F8F4F0C941D0984
:100F3000AA07D407D907E307ED076608F707FF07F5
:100F4000070811081B08250834083E0866084808E9
:100F500052085C0884B5806884BD07BD60E022202B
:100F600009F4C1C061E0832D0E94D00260E0842DAD
:100F70000E94D00265E070E080E090E00E94810372
:100F8000BFEF8B1A9B0AEFEFAE1ABE0AFFEFCF1A24
:100F9000DF0A82E0E80EF11CA8E0EA16F10409F08D
:100FA00046CF0E949F0225CE84B5806284BD08BDD5
:100FB000D5CF80918000806880938000D093890095
:100FC000C0938800CBCF80918000806280938000A6
:100FD000D0938B00C0938A00C1CF8091800088603D
:100FE00080938000D0938D00C0938C00B7CF809108
:100FF000B00080688093B0000093B300AFCF8091C1
:10100000B00080628093B0000093B400A7CF8091BD
:101010009000806880939000D0939900C0939800CE
:101020009DCF80919000806280939000D0939B0030
:10103000C0939A0093CF8091900088608093900035
:10104000D0939D00C0939C0089CF8091A0008068C0
:101050008093A0008091A0008F7B8093A000D0930C
:10106000A900C093A8007ACF8091A00080628093ED
:10107000A000D093AB00C093AA0070CF8091A000D5
:1010800088608093A000D093AD00C093AC0066CF81
:1010900080912001806880932001D0932901C09322
:1010A00028015CCF80912001806280932001D09341
:1010B0002B01C0932A0152CF809120018860809338
:1010C0002001D0932D01C0932C0148CFC038D10509
:1010D0000CF01CCF13CF852D0E947D0160E0852D83
:1010E0000E94D00261E0832D0E94D00261E03FCFD8
:1010F000F80181938F012196C730D10509F0ECCD1D
:101100002BCEEEE8F2E01382128288EE93E0A0E0AC
:10111000B0E084839583A683B78384E092E09183D3
:10112000808385EC90E09587848784EC90E09787B6
:10113000868780EC90E0918B808B81EC90E0938BA4
:10114000828B82EC90E0958B848B86EC90E0978B81
:10115000868B118E128E138E148E0895052E97FB9A
:101160001EF400940E94C50857FD07D00E94D808BD
:1011700007FC03D04EF40C94C5085095409530956B
:1011800021953F4F4F4F5F4F0895909580957095F3
:1011900061957F4F8F4F9F4F08950E94FA08A59F3A
:1011A000900DB49F900DA49F800D911D1124089562
:1011B000A1E21A2EAA1BBB1BFD010DC0AA1FBB1F5B
:1011C000EE1FFF1FA217B307E407F50720F0A21BCD
:1011D000B30BE40BF50B661F771F881F991F1A943A
:1011E00069F760957095809590959B01AC01BD0164
:1011F000CF010895A29FB001B39FC001A39F700DBE
:10120000811D1124911DB29F700D811D1124911D0E
:10121000089597FB072E16F4009407D077FD09D0A8
:101220000E94250907FC05D03EF4909581959F4FBB
:101230000895709561957F4F0895EE0FFF1F881FE9
:101240008BBF0790F691E02D1994AA1BBB1B51E1AF
:1012500007C0AA1FBB1FA617B70710F0A61BB70B26
:10126000881F991F5A95A9F780959095BC01CD01CB
:061270000895F894FFCF81
:101276000000000032029C01C9017F02FA01D80178
:10128600EC01EC03DA01B5010A0102005D004E0033
:10129600BD00F0005A005A00B4000708090A0C0CF9
:1012A6001A1C24282E32181E22262C300400010077
:1012B60001000100010001000100000008000F000C
:1012C6000F00080036003700380039000101010020
:0612D6002C000D0A0000CF
:00000001FF
